{
	"Lottery.sol": {
		"Lottery": {
			"abi": [
				{
					"inputs": [],
					"stateMutability": "nonpayable",
					"type": "constructor"
				},
				{
					"inputs": [],
					"name": "getBalance",
					"outputs": [
						{
							"internalType": "uint256",
							"name": "",
							"type": "uint256"
						}
					],
					"stateMutability": "view",
					"type": "function"
				},
				{
					"inputs": [],
					"name": "manager",
					"outputs": [
						{
							"internalType": "address",
							"name": "",
							"type": "address"
						}
					],
					"stateMutability": "view",
					"type": "function"
				},
				{
					"inputs": [
						{
							"internalType": "uint256",
							"name": "",
							"type": "uint256"
						}
					],
					"name": "participants",
					"outputs": [
						{
							"internalType": "address payable",
							"name": "",
							"type": "address"
						}
					],
					"stateMutability": "view",
					"type": "function"
				},
				{
					"inputs": [],
					"name": "setlectWinner",
					"outputs": [
						{
							"internalType": "address",
							"name": "",
							"type": "address"
						}
					],
					"stateMutability": "nonpayable",
					"type": "function"
				},
				{
					"stateMutability": "payable",
					"type": "receive"
				}
			],
			"devdoc": {
				"kind": "dev",
				"methods": {},
				"version": 1
			},
			"evm": {
				"assembly": "    /* \"Lottery.sol\":70:1210  contract Lottery {... */\n  mstore(0x40, 0x80)\n    /* \"Lottery.sol\":171:242  constructor() {... */\n  callvalue\n  dup1\n  iszero\n  tag_1\n  jumpi\n  0x00\n  dup1\n  revert\ntag_1:\n  pop\n    /* \"Lottery.sol\":206:216  msg.sender */\n  caller\n    /* \"Lottery.sol\":196:203  manager */\n  0x00\n  dup1\n    /* \"Lottery.sol\":196:216  manager = msg.sender */\n  0x0100\n  exp\n  dup2\n  sload\n  dup2\n  0xffffffffffffffffffffffffffffffffffffffff\n  mul\n  not\n  and\n  swap1\n  dup4\n  0xffffffffffffffffffffffffffffffffffffffff\n  and\n  mul\n  or\n  swap1\n  sstore\n  pop\n    /* \"Lottery.sol\":70:1210  contract Lottery {... */\n  dataSize(sub_0)\n  dup1\n  dataOffset(sub_0)\n  0x00\n  codecopy\n  0x00\n  return\nstop\n\nsub_0: assembly {\n        /* \"Lottery.sol\":70:1210  contract Lottery {... */\n      mstore(0x40, 0x80)\n      jumpi(tag_1, lt(calldatasize, 0x04))\n      shr(0xe0, calldataload(0x00))\n      dup1\n      0x12065fe0\n      eq\n      tag_3\n      jumpi\n      dup1\n      0x35c1d349\n      eq\n      tag_4\n      jumpi\n      dup1\n      0x481c6a75\n      eq\n      tag_5\n      jumpi\n      dup1\n      0xcc35050b\n      eq\n      tag_6\n      jumpi\n      jump(tag_2)\n    tag_1:\n      jumpi(tag_2, calldatasize)\n        /* \"Lottery.sol\":309:316  1 ether */\n      0x0de0b6b3a7640000\n        /* \"Lottery.sol\":296:305  msg.value */\n      callvalue\n        /* \"Lottery.sol\":296:316  msg.value == 1 ether */\n      eq\n        /* \"Lottery.sol\":288:337  require(msg.value == 1 ether, \"1 Ether required\") */\n      tag_9\n      jumpi\n      mload(0x40)\n      0x08c379a000000000000000000000000000000000000000000000000000000000\n      dup2\n      mstore\n      0x04\n      add\n      tag_10\n      swap1\n      tag_11\n      jump\t// in\n    tag_10:\n      mload(0x40)\n      dup1\n      swap2\n      sub\n      swap1\n      revert\n    tag_9:\n        /* \"Lottery.sol\":348:360  participants */\n      0x01\n        /* \"Lottery.sol\":374:384  msg.sender */\n      caller\n        /* \"Lottery.sol\":348:386  participants.push(payable(msg.sender)) */\n      swap1\n      dup1\n      0x01\n      dup2\n      sload\n      add\n      dup1\n      dup3\n      sstore\n      dup1\n      swap2\n      pop\n      pop\n      0x01\n      swap1\n      sub\n      swap1\n      0x00\n      mstore\n      keccak256(0x00, 0x20)\n      add\n      0x00\n      swap1\n      swap2\n      swap1\n      swap2\n      swap1\n      swap2\n      0x0100\n      exp\n      dup2\n      sload\n      dup2\n      0xffffffffffffffffffffffffffffffffffffffff\n      mul\n      not\n      and\n      swap1\n      dup4\n      0xffffffffffffffffffffffffffffffffffffffff\n      and\n      mul\n      or\n      swap1\n      sstore\n      stop\n        /* \"Lottery.sol\":70:1210  contract Lottery {... */\n    tag_2:\n      0x00\n      dup1\n      revert\n        /* \"Lottery.sol\":405:575  function getBalance() public  view returns (uint) {... */\n    tag_3:\n      callvalue\n      dup1\n      iszero\n      tag_13\n      jumpi\n      0x00\n      dup1\n      revert\n    tag_13:\n      pop\n      tag_14\n      tag_15\n      jump\t// in\n    tag_14:\n      mload(0x40)\n      tag_16\n      swap2\n      swap1\n      tag_17\n      jump\t// in\n    tag_16:\n      mload(0x40)\n      dup1\n      swap2\n      sub\n      swap1\n      return\n        /* \"Lottery.sol\":124:162  address payable[] public  participants */\n    tag_4:\n      callvalue\n      dup1\n      iszero\n      tag_18\n      jumpi\n      0x00\n      dup1\n      revert\n    tag_18:\n      pop\n      tag_19\n      0x04\n      dup1\n      calldatasize\n      sub\n      dup2\n      add\n      swap1\n      tag_20\n      swap2\n      swap1\n      tag_21\n      jump\t// in\n    tag_20:\n      tag_22\n      jump\t// in\n    tag_19:\n      mload(0x40)\n      tag_23\n      swap2\n      swap1\n      tag_24\n      jump\t// in\n    tag_23:\n      mload(0x40)\n      dup1\n      swap2\n      sub\n      swap1\n      return\n        /* \"Lottery.sol\":94:117  address public  manager */\n    tag_5:\n      callvalue\n      dup1\n      iszero\n      tag_25\n      jumpi\n      0x00\n      dup1\n      revert\n    tag_25:\n      pop\n      tag_26\n      tag_27\n      jump\t// in\n    tag_26:\n      mload(0x40)\n      tag_28\n      swap2\n      swap1\n      tag_29\n      jump\t// in\n    tag_28:\n      mload(0x40)\n      dup1\n      swap2\n      sub\n      swap1\n      return\n        /* \"Lottery.sol\":753:1206  function setlectWinner () public returns(address) {... */\n    tag_6:\n      callvalue\n      dup1\n      iszero\n      tag_30\n      jumpi\n      0x00\n      dup1\n      revert\n    tag_30:\n      pop\n      tag_31\n      tag_32\n      jump\t// in\n    tag_31:\n      mload(0x40)\n      tag_33\n      swap2\n      swap1\n      tag_29\n      jump\t// in\n    tag_33:\n      mload(0x40)\n      dup1\n      swap2\n      sub\n      swap1\n      return\n        /* \"Lottery.sol\":405:575  function getBalance() public  view returns (uint) {... */\n    tag_15:\n        /* \"Lottery.sol\":449:453  uint */\n      0x00\n        /* \"Lottery.sol\":488:495  manager */\n      dup1\n      0x00\n      swap1\n      sload\n      swap1\n      0x0100\n      exp\n      swap1\n      div\n      0xffffffffffffffffffffffffffffffffffffffff\n      and\n        /* \"Lottery.sol\":474:495  msg.sender == manager */\n      0xffffffffffffffffffffffffffffffffffffffff\n      and\n        /* \"Lottery.sol\":474:484  msg.sender */\n      caller\n        /* \"Lottery.sol\":474:495  msg.sender == manager */\n      0xffffffffffffffffffffffffffffffffffffffff\n      and\n      eq\n        /* \"Lottery.sol\":466:528  require(msg.sender == manager, \"Only manager can see balance\") */\n      tag_35\n      jumpi\n      mload(0x40)\n      0x08c379a000000000000000000000000000000000000000000000000000000000\n      dup2\n      mstore\n      0x04\n      add\n      tag_36\n      swap1\n      tag_37\n      jump\t// in\n    tag_36:\n      mload(0x40)\n      dup1\n      swap2\n      sub\n      swap1\n      revert\n    tag_35:\n        /* \"Lottery.sol\":546:567  address(this).balance */\n      selfbalance\n        /* \"Lottery.sol\":539:567  return address(this).balance */\n      swap1\n      pop\n        /* \"Lottery.sol\":405:575  function getBalance() public  view returns (uint) {... */\n      swap1\n      jump\t// out\n        /* \"Lottery.sol\":124:162  address payable[] public  participants */\n    tag_22:\n      0x01\n      dup2\n      dup2\n      sload\n      dup2\n      lt\n      tag_38\n      jumpi\n      0x00\n      dup1\n      revert\n    tag_38:\n      swap1\n      0x00\n      mstore\n      keccak256(0x00, 0x20)\n      add\n      0x00\n      swap2\n      pop\n      sload\n      swap1\n      0x0100\n      exp\n      swap1\n      div\n      0xffffffffffffffffffffffffffffffffffffffff\n      and\n      dup2\n      jump\t// out\n        /* \"Lottery.sol\":94:117  address public  manager */\n    tag_27:\n      0x00\n      dup1\n      sload\n      swap1\n      0x0100\n      exp\n      swap1\n      div\n      0xffffffffffffffffffffffffffffffffffffffff\n      and\n      dup2\n      jump\t// out\n        /* \"Lottery.sol\":753:1206  function setlectWinner () public returns(address) {... */\n    tag_32:\n        /* \"Lottery.sol\":794:801  address */\n      0x00\n        /* \"Lottery.sol\":836:843  manager */\n      dup1\n      0x00\n      swap1\n      sload\n      swap1\n      0x0100\n      exp\n      swap1\n      div\n      0xffffffffffffffffffffffffffffffffffffffff\n      and\n        /* \"Lottery.sol\":822:843  msg.sender == manager */\n      0xffffffffffffffffffffffffffffffffffffffff\n      and\n        /* \"Lottery.sol\":822:832  msg.sender */\n      caller\n        /* \"Lottery.sol\":822:843  msg.sender == manager */\n      0xffffffffffffffffffffffffffffffffffffffff\n      and\n      eq\n        /* \"Lottery.sol\":814:881  require(msg.sender == manager, \"Only manager can be select winner\") */\n      tag_41\n      jumpi\n      mload(0x40)\n      0x08c379a000000000000000000000000000000000000000000000000000000000\n      dup2\n      mstore\n      0x04\n      add\n      tag_42\n      swap1\n      tag_43\n      jump\t// in\n    tag_42:\n      mload(0x40)\n      dup1\n      swap2\n      sub\n      swap1\n      revert\n    tag_41:\n        /* \"Lottery.sol\":923:924  3 */\n      0x03\n        /* \"Lottery.sol\":900:912  participants */\n      0x01\n        /* \"Lottery.sol\":900:919  participants.length */\n      dup1\n      sload\n      swap1\n      pop\n        /* \"Lottery.sol\":900:924  participants.length >= 3 */\n      lt\n      iszero\n        /* \"Lottery.sol\":892:925  require(participants.length >= 3) */\n      tag_44\n      jumpi\n      0x00\n      dup1\n      revert\n    tag_44:\n        /* \"Lottery.sol\":946:952  uint r */\n      0x00\n        /* \"Lottery.sol\":955:963  random() */\n      tag_45\n        /* \"Lottery.sol\":955:961  random */\n      tag_46\n        /* \"Lottery.sol\":955:963  random() */\n      jump\t// in\n    tag_45:\n        /* \"Lottery.sol\":946:963  uint r = random() */\n      swap1\n      pop\n        /* \"Lottery.sol\":974:997  address payable  winner */\n      0x00\n        /* \"Lottery.sol\":1008:1018  uint index */\n      dup1\n        /* \"Lottery.sol\":1025:1037  participants */\n      0x01\n        /* \"Lottery.sol\":1025:1044  participants.length */\n      dup1\n      sload\n      swap1\n      pop\n        /* \"Lottery.sol\":1021:1022  r */\n      dup4\n        /* \"Lottery.sol\":1021:1044  r % participants.length */\n      tag_47\n      swap2\n      swap1\n      tag_48\n      jump\t// in\n    tag_47:\n        /* \"Lottery.sol\":1008:1044  uint index = r % participants.length */\n      swap1\n      pop\n        /* \"Lottery.sol\":1064:1076  participants */\n      0x01\n        /* \"Lottery.sol\":1077:1082  index */\n      dup2\n        /* \"Lottery.sol\":1064:1083  participants[index] */\n      dup2\n      sload\n      dup2\n      lt\n      tag_49\n      jumpi\n      tag_50\n      tag_51\n      jump\t// in\n    tag_50:\n    tag_49:\n      swap1\n      0x00\n      mstore\n      keccak256(0x00, 0x20)\n      add\n      0x00\n      swap1\n      sload\n      swap1\n      0x0100\n      exp\n      swap1\n      div\n      0xffffffffffffffffffffffffffffffffffffffff\n      and\n        /* \"Lottery.sol\":1055:1083  winner = participants[index] */\n      swap2\n      pop\n        /* \"Lottery.sol\":1094:1100  winner */\n      dup2\n        /* \"Lottery.sol\":1094:1109  winner.transfer */\n      0xffffffffffffffffffffffffffffffffffffffff\n      and\n        /* \"Lottery.sol\":1094:1123  winner.transfer(getBalance()) */\n      0x08fc\n        /* \"Lottery.sol\":1110:1122  getBalance() */\n      tag_53\n        /* \"Lottery.sol\":1110:1120  getBalance */\n      tag_15\n        /* \"Lottery.sol\":1110:1122  getBalance() */\n      jump\t// in\n    tag_53:\n        /* \"Lottery.sol\":1094:1123  winner.transfer(getBalance()) */\n      swap1\n      dup2\n      iszero\n      mul\n      swap1\n      mload(0x40)\n      0x00\n      mload(0x40)\n      dup1\n      dup4\n      sub\n      dup2\n      dup6\n      dup9\n      dup9\n      call\n      swap4\n      pop\n      pop\n      pop\n      pop\n      iszero\n      dup1\n      iszero\n      tag_55\n      jumpi\n      returndatasize\n      0x00\n      dup1\n      returndatacopy\n      revert(0x00, returndatasize)\n    tag_55:\n      pop\n        /* \"Lottery.sol\":1172:1173  0 */\n      0x00\n        /* \"Lottery.sol\":1150:1174  new address payable[](0) */\n      0xffffffffffffffff\n      dup2\n      gt\n      iszero\n      tag_56\n      jumpi\n      tag_57\n      tag_58\n      jump\t// in\n    tag_57:\n    tag_56:\n      mload(0x40)\n      swap1\n      dup1\n      dup3\n      mstore\n      dup1\n      0x20\n      mul\n      0x20\n      add\n      dup3\n      add\n      0x40\n      mstore\n      dup1\n      iszero\n      tag_59\n      jumpi\n      dup2\n      0x20\n      add\n      0x20\n      dup3\n      mul\n      dup1\n      calldatasize\n      dup4\n      calldatacopy\n      dup1\n      dup3\n      add\n      swap2\n      pop\n      pop\n      swap1\n      pop\n    tag_59:\n      pop\n        /* \"Lottery.sol\":1134:1146  participants */\n      0x01\n        /* \"Lottery.sol\":1134:1174  participants =  new address payable[](0) */\n      swap1\n      dup1\n      mload\n      swap1\n      0x20\n      add\n      swap1\n      tag_60\n      swap3\n      swap2\n      swap1\n      tag_61\n      jump\t// in\n    tag_60:\n      pop\n        /* \"Lottery.sol\":1192:1198  winner */\n      dup2\n        /* \"Lottery.sol\":1185:1198  return winner */\n      swap4\n      pop\n      pop\n      pop\n      pop\n        /* \"Lottery.sol\":753:1206  function setlectWinner () public returns(address) {... */\n      swap1\n      jump\t// out\n        /* \"Lottery.sol\":583:745  function random() internal  view returns (uint){... */\n    tag_46:\n        /* \"Lottery.sol\":625:629  uint */\n      0x00\n        /* \"Lottery.sol\":680:696  block.prevrandao */\n      prevrandao\n        /* \"Lottery.sol\":698:713  block.timestamp */\n      timestamp\n        /* \"Lottery.sol\":715:727  participants */\n      0x01\n        /* \"Lottery.sol\":715:734  participants.length */\n      dup1\n      sload\n      swap1\n      pop\n        /* \"Lottery.sol\":663:735  abi.encodePacked(block.prevrandao, block.timestamp, participants.length) */\n      add(0x20, mload(0x40))\n      tag_63\n      swap4\n      swap3\n      swap2\n      swap1\n      tag_64\n      jump\t// in\n    tag_63:\n      mload(0x40)\n      0x20\n      dup2\n      dup4\n      sub\n      sub\n      dup2\n      mstore\n      swap1\n      0x40\n      mstore\n        /* \"Lottery.sol\":653:736  keccak256(abi.encodePacked(block.prevrandao, block.timestamp, participants.length)) */\n      dup1\n      mload\n      swap1\n      0x20\n      add\n      keccak256\n        /* \"Lottery.sol\":648:737  uint(keccak256(abi.encodePacked(block.prevrandao, block.timestamp, participants.length))) */\n      0x00\n      shr\n        /* \"Lottery.sol\":640:737  return  uint(keccak256(abi.encodePacked(block.prevrandao, block.timestamp, participants.length))) */\n      swap1\n      pop\n        /* \"Lottery.sol\":583:745  function random() internal  view returns (uint){... */\n      swap1\n      jump\t// out\n    tag_61:\n      dup3\n      dup1\n      sload\n      dup3\n      dup3\n      sstore\n      swap1\n      0x00\n      mstore\n      keccak256(0x00, 0x20)\n      swap1\n      dup2\n      add\n      swap3\n      dup3\n      iszero\n      tag_65\n      jumpi\n      swap2\n      0x20\n      mul\n      dup3\n      add\n    tag_66:\n      dup3\n      dup2\n      gt\n      iszero\n      tag_67\n      jumpi\n      dup3\n      mload\n      dup3\n      exp(0x0100, 0x00)\n      dup2\n      sload\n      dup2\n      0xffffffffffffffffffffffffffffffffffffffff\n      mul\n      not\n      and\n      swap1\n      dup4\n      0xffffffffffffffffffffffffffffffffffffffff\n      and\n      mul\n      or\n      swap1\n      sstore\n      pop\n      swap2\n      0x20\n      add\n      swap2\n      swap1\n      0x01\n      add\n      swap1\n      jump(tag_66)\n    tag_67:\n    tag_65:\n      pop\n      swap1\n      pop\n      tag_68\n      swap2\n      swap1\n      tag_69\n      jump\t// in\n    tag_68:\n      pop\n      swap1\n      jump\t// out\n    tag_69:\n    tag_70:\n      dup1\n      dup3\n      gt\n      iszero\n      tag_71\n      jumpi\n      0x00\n      dup2\n      0x00\n      swap1\n      sstore\n      pop\n      0x01\n      add\n      jump(tag_70)\n    tag_71:\n      pop\n      swap1\n      jump\t// out\n        /* \"#utility.yul\":7:176   */\n    tag_72:\n        /* \"#utility.yul\":91:102   */\n      0x00\n        /* \"#utility.yul\":125:131   */\n      dup3\n        /* \"#utility.yul\":120:123   */\n      dup3\n        /* \"#utility.yul\":113:132   */\n      mstore\n        /* \"#utility.yul\":165:169   */\n      0x20\n        /* \"#utility.yul\":160:163   */\n      dup3\n        /* \"#utility.yul\":156:170   */\n      add\n        /* \"#utility.yul\":141:170   */\n      swap1\n      pop\n        /* \"#utility.yul\":7:176   */\n      swap3\n      swap2\n      pop\n      pop\n      jump\t// out\n        /* \"#utility.yul\":182:348   */\n    tag_73:\n        /* \"#utility.yul\":322:340   */\n      0x3120457468657220726571756972656400000000000000000000000000000000\n        /* \"#utility.yul\":318:319   */\n      0x00\n        /* \"#utility.yul\":310:316   */\n      dup3\n        /* \"#utility.yul\":306:320   */\n      add\n        /* \"#utility.yul\":299:341   */\n      mstore\n        /* \"#utility.yul\":182:348   */\n      pop\n      jump\t// out\n        /* \"#utility.yul\":354:720   */\n    tag_74:\n        /* \"#utility.yul\":496:499   */\n      0x00\n        /* \"#utility.yul\":517:584   */\n      tag_98\n        /* \"#utility.yul\":581:583   */\n      0x10\n        /* \"#utility.yul\":576:579   */\n      dup4\n        /* \"#utility.yul\":517:584   */\n      tag_72\n      jump\t// in\n    tag_98:\n        /* \"#utility.yul\":510:584   */\n      swap2\n      pop\n        /* \"#utility.yul\":593:686   */\n      tag_99\n        /* \"#utility.yul\":682:685   */\n      dup3\n        /* \"#utility.yul\":593:686   */\n      tag_73\n      jump\t// in\n    tag_99:\n        /* \"#utility.yul\":711:713   */\n      0x20\n        /* \"#utility.yul\":706:709   */\n      dup3\n        /* \"#utility.yul\":702:714   */\n      add\n        /* \"#utility.yul\":695:714   */\n      swap1\n      pop\n        /* \"#utility.yul\":354:720   */\n      swap2\n      swap1\n      pop\n      jump\t// out\n        /* \"#utility.yul\":726:1145   */\n    tag_11:\n        /* \"#utility.yul\":892:896   */\n      0x00\n        /* \"#utility.yul\":930:932   */\n      0x20\n        /* \"#utility.yul\":919:928   */\n      dup3\n        /* \"#utility.yul\":915:933   */\n      add\n        /* \"#utility.yul\":907:933   */\n      swap1\n      pop\n        /* \"#utility.yul\":979:988   */\n      dup2\n        /* \"#utility.yul\":973:977   */\n      dup2\n        /* \"#utility.yul\":969:989   */\n      sub\n        /* \"#utility.yul\":965:966   */\n      0x00\n        /* \"#utility.yul\":954:963   */\n      dup4\n        /* \"#utility.yul\":950:967   */\n      add\n        /* \"#utility.yul\":943:990   */\n      mstore\n        /* \"#utility.yul\":1007:1138   */\n      tag_101\n        /* \"#utility.yul\":1133:1137   */\n      dup2\n        /* \"#utility.yul\":1007:1138   */\n      tag_74\n      jump\t// in\n    tag_101:\n        /* \"#utility.yul\":999:1138   */\n      swap1\n      pop\n        /* \"#utility.yul\":726:1145   */\n      swap2\n      swap1\n      pop\n      jump\t// out\n        /* \"#utility.yul\":1151:1228   */\n    tag_75:\n        /* \"#utility.yul\":1188:1195   */\n      0x00\n        /* \"#utility.yul\":1217:1222   */\n      dup2\n        /* \"#utility.yul\":1206:1222   */\n      swap1\n      pop\n        /* \"#utility.yul\":1151:1228   */\n      swap2\n      swap1\n      pop\n      jump\t// out\n        /* \"#utility.yul\":1234:1352   */\n    tag_76:\n        /* \"#utility.yul\":1321:1345   */\n      tag_104\n        /* \"#utility.yul\":1339:1344   */\n      dup2\n        /* \"#utility.yul\":1321:1345   */\n      tag_75\n      jump\t// in\n    tag_104:\n        /* \"#utility.yul\":1316:1319   */\n      dup3\n        /* \"#utility.yul\":1309:1346   */\n      mstore\n        /* \"#utility.yul\":1234:1352   */\n      pop\n      pop\n      jump\t// out\n        /* \"#utility.yul\":1358:1580   */\n    tag_17:\n        /* \"#utility.yul\":1451:1455   */\n      0x00\n        /* \"#utility.yul\":1489:1491   */\n      0x20\n        /* \"#utility.yul\":1478:1487   */\n      dup3\n        /* \"#utility.yul\":1474:1492   */\n      add\n        /* \"#utility.yul\":1466:1492   */\n      swap1\n      pop\n        /* \"#utility.yul\":1502:1573   */\n      tag_106\n        /* \"#utility.yul\":1570:1571   */\n      0x00\n        /* \"#utility.yul\":1559:1568   */\n      dup4\n        /* \"#utility.yul\":1555:1572   */\n      add\n        /* \"#utility.yul\":1546:1552   */\n      dup5\n        /* \"#utility.yul\":1502:1573   */\n      tag_76\n      jump\t// in\n    tag_106:\n        /* \"#utility.yul\":1358:1580   */\n      swap3\n      swap2\n      pop\n      pop\n      jump\t// out\n        /* \"#utility.yul\":1667:1784   */\n    tag_78:\n        /* \"#utility.yul\":1776:1777   */\n      0x00\n        /* \"#utility.yul\":1773:1774   */\n      dup1\n        /* \"#utility.yul\":1766:1778   */\n      revert\n        /* \"#utility.yul\":1913:2035   */\n    tag_80:\n        /* \"#utility.yul\":1986:2010   */\n      tag_111\n        /* \"#utility.yul\":2004:2009   */\n      dup2\n        /* \"#utility.yul\":1986:2010   */\n      tag_75\n      jump\t// in\n    tag_111:\n        /* \"#utility.yul\":1979:1984   */\n      dup2\n        /* \"#utility.yul\":1976:2011   */\n      eq\n        /* \"#utility.yul\":1966:2029   */\n      tag_112\n      jumpi\n        /* \"#utility.yul\":2025:2026   */\n      0x00\n        /* \"#utility.yul\":2022:2023   */\n      dup1\n        /* \"#utility.yul\":2015:2027   */\n      revert\n        /* \"#utility.yul\":1966:2029   */\n    tag_112:\n        /* \"#utility.yul\":1913:2035   */\n      pop\n      jump\t// out\n        /* \"#utility.yul\":2041:2180   */\n    tag_81:\n        /* \"#utility.yul\":2087:2092   */\n      0x00\n        /* \"#utility.yul\":2125:2131   */\n      dup2\n        /* \"#utility.yul\":2112:2132   */\n      calldataload\n        /* \"#utility.yul\":2103:2132   */\n      swap1\n      pop\n        /* \"#utility.yul\":2141:2174   */\n      tag_114\n        /* \"#utility.yul\":2168:2173   */\n      dup2\n        /* \"#utility.yul\":2141:2174   */\n      tag_80\n      jump\t// in\n    tag_114:\n        /* \"#utility.yul\":2041:2180   */\n      swap3\n      swap2\n      pop\n      pop\n      jump\t// out\n        /* \"#utility.yul\":2186:2515   */\n    tag_21:\n        /* \"#utility.yul\":2245:2251   */\n      0x00\n        /* \"#utility.yul\":2294:2296   */\n      0x20\n        /* \"#utility.yul\":2282:2291   */\n      dup3\n        /* \"#utility.yul\":2273:2280   */\n      dup5\n        /* \"#utility.yul\":2269:2292   */\n      sub\n        /* \"#utility.yul\":2265:2297   */\n      slt\n        /* \"#utility.yul\":2262:2381   */\n      iszero\n      tag_116\n      jumpi\n        /* \"#utility.yul\":2300:2379   */\n      tag_117\n      tag_78\n      jump\t// in\n    tag_117:\n        /* \"#utility.yul\":2262:2381   */\n    tag_116:\n        /* \"#utility.yul\":2420:2421   */\n      0x00\n        /* \"#utility.yul\":2445:2498   */\n      tag_118\n        /* \"#utility.yul\":2490:2497   */\n      dup5\n        /* \"#utility.yul\":2481:2487   */\n      dup3\n        /* \"#utility.yul\":2470:2479   */\n      dup6\n        /* \"#utility.yul\":2466:2488   */\n      add\n        /* \"#utility.yul\":2445:2498   */\n      tag_81\n      jump\t// in\n    tag_118:\n        /* \"#utility.yul\":2435:2498   */\n      swap2\n      pop\n        /* \"#utility.yul\":2391:2508   */\n      pop\n        /* \"#utility.yul\":2186:2515   */\n      swap3\n      swap2\n      pop\n      pop\n      jump\t// out\n        /* \"#utility.yul\":2521:2647   */\n    tag_82:\n        /* \"#utility.yul\":2558:2565   */\n      0x00\n        /* \"#utility.yul\":2598:2640   */\n      0xffffffffffffffffffffffffffffffffffffffff\n        /* \"#utility.yul\":2591:2596   */\n      dup3\n        /* \"#utility.yul\":2587:2641   */\n      and\n        /* \"#utility.yul\":2576:2641   */\n      swap1\n      pop\n        /* \"#utility.yul\":2521:2647   */\n      swap2\n      swap1\n      pop\n      jump\t// out\n        /* \"#utility.yul\":2653:2757   */\n    tag_83:\n        /* \"#utility.yul\":2698:2705   */\n      0x00\n        /* \"#utility.yul\":2727:2751   */\n      tag_121\n        /* \"#utility.yul\":2745:2750   */\n      dup3\n        /* \"#utility.yul\":2727:2751   */\n      tag_82\n      jump\t// in\n    tag_121:\n        /* \"#utility.yul\":2716:2751   */\n      swap1\n      pop\n        /* \"#utility.yul\":2653:2757   */\n      swap2\n      swap1\n      pop\n      jump\t// out\n        /* \"#utility.yul\":2763:2905   */\n    tag_84:\n        /* \"#utility.yul\":2866:2898   */\n      tag_123\n        /* \"#utility.yul\":2892:2897   */\n      dup2\n        /* \"#utility.yul\":2866:2898   */\n      tag_83\n      jump\t// in\n    tag_123:\n        /* \"#utility.yul\":2861:2864   */\n      dup3\n        /* \"#utility.yul\":2854:2899   */\n      mstore\n        /* \"#utility.yul\":2763:2905   */\n      pop\n      pop\n      jump\t// out\n        /* \"#utility.yul\":2911:3165   */\n    tag_24:\n        /* \"#utility.yul\":3020:3024   */\n      0x00\n        /* \"#utility.yul\":3058:3060   */\n      0x20\n        /* \"#utility.yul\":3047:3056   */\n      dup3\n        /* \"#utility.yul\":3043:3061   */\n      add\n        /* \"#utility.yul\":3035:3061   */\n      swap1\n      pop\n        /* \"#utility.yul\":3071:3158   */\n      tag_125\n        /* \"#utility.yul\":3155:3156   */\n      0x00\n        /* \"#utility.yul\":3144:3153   */\n      dup4\n        /* \"#utility.yul\":3140:3157   */\n      add\n        /* \"#utility.yul\":3131:3137   */\n      dup5\n        /* \"#utility.yul\":3071:3158   */\n      tag_84\n      jump\t// in\n    tag_125:\n        /* \"#utility.yul\":2911:3165   */\n      swap3\n      swap2\n      pop\n      pop\n      jump\t// out\n        /* \"#utility.yul\":3171:3267   */\n    tag_85:\n        /* \"#utility.yul\":3208:3215   */\n      0x00\n        /* \"#utility.yul\":3237:3261   */\n      tag_127\n        /* \"#utility.yul\":3255:3260   */\n      dup3\n        /* \"#utility.yul\":3237:3261   */\n      tag_82\n      jump\t// in\n    tag_127:\n        /* \"#utility.yul\":3226:3261   */\n      swap1\n      pop\n        /* \"#utility.yul\":3171:3267   */\n      swap2\n      swap1\n      pop\n      jump\t// out\n        /* \"#utility.yul\":3273:3391   */\n    tag_86:\n        /* \"#utility.yul\":3360:3384   */\n      tag_129\n        /* \"#utility.yul\":3378:3383   */\n      dup2\n        /* \"#utility.yul\":3360:3384   */\n      tag_85\n      jump\t// in\n    tag_129:\n        /* \"#utility.yul\":3355:3358   */\n      dup3\n        /* \"#utility.yul\":3348:3385   */\n      mstore\n        /* \"#utility.yul\":3273:3391   */\n      pop\n      pop\n      jump\t// out\n        /* \"#utility.yul\":3397:3619   */\n    tag_29:\n        /* \"#utility.yul\":3490:3494   */\n      0x00\n        /* \"#utility.yul\":3528:3530   */\n      0x20\n        /* \"#utility.yul\":3517:3526   */\n      dup3\n        /* \"#utility.yul\":3513:3531   */\n      add\n        /* \"#utility.yul\":3505:3531   */\n      swap1\n      pop\n        /* \"#utility.yul\":3541:3612   */\n      tag_131\n        /* \"#utility.yul\":3609:3610   */\n      0x00\n        /* \"#utility.yul\":3598:3607   */\n      dup4\n        /* \"#utility.yul\":3594:3611   */\n      add\n        /* \"#utility.yul\":3585:3591   */\n      dup5\n        /* \"#utility.yul\":3541:3612   */\n      tag_86\n      jump\t// in\n    tag_131:\n        /* \"#utility.yul\":3397:3619   */\n      swap3\n      swap2\n      pop\n      pop\n      jump\t// out\n        /* \"#utility.yul\":3625:3803   */\n    tag_87:\n        /* \"#utility.yul\":3765:3795   */\n      0x4f6e6c79206d616e616765722063616e207365652062616c616e636500000000\n        /* \"#utility.yul\":3761:3762   */\n      0x00\n        /* \"#utility.yul\":3753:3759   */\n      dup3\n        /* \"#utility.yul\":3749:3763   */\n      add\n        /* \"#utility.yul\":3742:3796   */\n      mstore\n        /* \"#utility.yul\":3625:3803   */\n      pop\n      jump\t// out\n        /* \"#utility.yul\":3809:4175   */\n    tag_88:\n        /* \"#utility.yul\":3951:3954   */\n      0x00\n        /* \"#utility.yul\":3972:4039   */\n      tag_134\n        /* \"#utility.yul\":4036:4038   */\n      0x1c\n        /* \"#utility.yul\":4031:4034   */\n      dup4\n        /* \"#utility.yul\":3972:4039   */\n      tag_72\n      jump\t// in\n    tag_134:\n        /* \"#utility.yul\":3965:4039   */\n      swap2\n      pop\n        /* \"#utility.yul\":4048:4141   */\n      tag_135\n        /* \"#utility.yul\":4137:4140   */\n      dup3\n        /* \"#utility.yul\":4048:4141   */\n      tag_87\n      jump\t// in\n    tag_135:\n        /* \"#utility.yul\":4166:4168   */\n      0x20\n        /* \"#utility.yul\":4161:4164   */\n      dup3\n        /* \"#utility.yul\":4157:4169   */\n      add\n        /* \"#utility.yul\":4150:4169   */\n      swap1\n      pop\n        /* \"#utility.yul\":3809:4175   */\n      swap2\n      swap1\n      pop\n      jump\t// out\n        /* \"#utility.yul\":4181:4600   */\n    tag_37:\n        /* \"#utility.yul\":4347:4351   */\n      0x00\n        /* \"#utility.yul\":4385:4387   */\n      0x20\n        /* \"#utility.yul\":4374:4383   */\n      dup3\n        /* \"#utility.yul\":4370:4388   */\n      add\n        /* \"#utility.yul\":4362:4388   */\n      swap1\n      pop\n        /* \"#utility.yul\":4434:4443   */\n      dup2\n        /* \"#utility.yul\":4428:4432   */\n      dup2\n        /* \"#utility.yul\":4424:4444   */\n      sub\n        /* \"#utility.yul\":4420:4421   */\n      0x00\n        /* \"#utility.yul\":4409:4418   */\n      dup4\n        /* \"#utility.yul\":4405:4422   */\n      add\n        /* \"#utility.yul\":4398:4445   */\n      mstore\n        /* \"#utility.yul\":4462:4593   */\n      tag_137\n        /* \"#utility.yul\":4588:4592   */\n      dup2\n        /* \"#utility.yul\":4462:4593   */\n      tag_88\n      jump\t// in\n    tag_137:\n        /* \"#utility.yul\":4454:4593   */\n      swap1\n      pop\n        /* \"#utility.yul\":4181:4600   */\n      swap2\n      swap1\n      pop\n      jump\t// out\n        /* \"#utility.yul\":4606:4826   */\n    tag_89:\n        /* \"#utility.yul\":4746:4780   */\n      0x4f6e6c79206d616e616765722063616e2062652073656c6563742077696e6e65\n        /* \"#utility.yul\":4742:4743   */\n      0x00\n        /* \"#utility.yul\":4734:4740   */\n      dup3\n        /* \"#utility.yul\":4730:4744   */\n      add\n        /* \"#utility.yul\":4723:4781   */\n      mstore\n        /* \"#utility.yul\":4815:4818   */\n      0x7200000000000000000000000000000000000000000000000000000000000000\n        /* \"#utility.yul\":4810:4812   */\n      0x20\n        /* \"#utility.yul\":4802:4808   */\n      dup3\n        /* \"#utility.yul\":4798:4813   */\n      add\n        /* \"#utility.yul\":4791:4819   */\n      mstore\n        /* \"#utility.yul\":4606:4826   */\n      pop\n      jump\t// out\n        /* \"#utility.yul\":4832:5198   */\n    tag_90:\n        /* \"#utility.yul\":4974:4977   */\n      0x00\n        /* \"#utility.yul\":4995:5062   */\n      tag_140\n        /* \"#utility.yul\":5059:5061   */\n      0x21\n        /* \"#utility.yul\":5054:5057   */\n      dup4\n        /* \"#utility.yul\":4995:5062   */\n      tag_72\n      jump\t// in\n    tag_140:\n        /* \"#utility.yul\":4988:5062   */\n      swap2\n      pop\n        /* \"#utility.yul\":5071:5164   */\n      tag_141\n        /* \"#utility.yul\":5160:5163   */\n      dup3\n        /* \"#utility.yul\":5071:5164   */\n      tag_89\n      jump\t// in\n    tag_141:\n        /* \"#utility.yul\":5189:5191   */\n      0x40\n        /* \"#utility.yul\":5184:5187   */\n      dup3\n        /* \"#utility.yul\":5180:5192   */\n      add\n        /* \"#utility.yul\":5173:5192   */\n      swap1\n      pop\n        /* \"#utility.yul\":4832:5198   */\n      swap2\n      swap1\n      pop\n      jump\t// out\n        /* \"#utility.yul\":5204:5623   */\n    tag_43:\n        /* \"#utility.yul\":5370:5374   */\n      0x00\n        /* \"#utility.yul\":5408:5410   */\n      0x20\n        /* \"#utility.yul\":5397:5406   */\n      dup3\n        /* \"#utility.yul\":5393:5411   */\n      add\n        /* \"#utility.yul\":5385:5411   */\n      swap1\n      pop\n        /* \"#utility.yul\":5457:5466   */\n      dup2\n        /* \"#utility.yul\":5451:5455   */\n      dup2\n        /* \"#utility.yul\":5447:5467   */\n      sub\n        /* \"#utility.yul\":5443:5444   */\n      0x00\n        /* \"#utility.yul\":5432:5441   */\n      dup4\n        /* \"#utility.yul\":5428:5445   */\n      add\n        /* \"#utility.yul\":5421:5468   */\n      mstore\n        /* \"#utility.yul\":5485:5616   */\n      tag_143\n        /* \"#utility.yul\":5611:5615   */\n      dup2\n        /* \"#utility.yul\":5485:5616   */\n      tag_90\n      jump\t// in\n    tag_143:\n        /* \"#utility.yul\":5477:5616   */\n      swap1\n      pop\n        /* \"#utility.yul\":5204:5623   */\n      swap2\n      swap1\n      pop\n      jump\t// out\n        /* \"#utility.yul\":5629:5809   */\n    tag_91:\n        /* \"#utility.yul\":5677:5754   */\n      0x4e487b7100000000000000000000000000000000000000000000000000000000\n        /* \"#utility.yul\":5674:5675   */\n      0x00\n        /* \"#utility.yul\":5667:5755   */\n      mstore\n        /* \"#utility.yul\":5774:5778   */\n      0x12\n        /* \"#utility.yul\":5771:5772   */\n      0x04\n        /* \"#utility.yul\":5764:5779   */\n      mstore\n        /* \"#utility.yul\":5798:5802   */\n      0x24\n        /* \"#utility.yul\":5795:5796   */\n      0x00\n        /* \"#utility.yul\":5788:5803   */\n      revert\n        /* \"#utility.yul\":5815:5991   */\n    tag_48:\n        /* \"#utility.yul\":5847:5848   */\n      0x00\n        /* \"#utility.yul\":5864:5884   */\n      tag_146\n        /* \"#utility.yul\":5882:5883   */\n      dup3\n        /* \"#utility.yul\":5864:5884   */\n      tag_75\n      jump\t// in\n    tag_146:\n        /* \"#utility.yul\":5859:5884   */\n      swap2\n      pop\n        /* \"#utility.yul\":5898:5918   */\n      tag_147\n        /* \"#utility.yul\":5916:5917   */\n      dup4\n        /* \"#utility.yul\":5898:5918   */\n      tag_75\n      jump\t// in\n    tag_147:\n        /* \"#utility.yul\":5893:5918   */\n      swap3\n      pop\n        /* \"#utility.yul\":5937:5938   */\n      dup3\n        /* \"#utility.yul\":5927:5962   */\n      tag_148\n      jumpi\n        /* \"#utility.yul\":5942:5960   */\n      tag_149\n      tag_91\n      jump\t// in\n    tag_149:\n        /* \"#utility.yul\":5927:5962   */\n    tag_148:\n        /* \"#utility.yul\":5983:5984   */\n      dup3\n        /* \"#utility.yul\":5980:5981   */\n      dup3\n        /* \"#utility.yul\":5976:5985   */\n      mod\n        /* \"#utility.yul\":5971:5985   */\n      swap1\n      pop\n        /* \"#utility.yul\":5815:5991   */\n      swap3\n      swap2\n      pop\n      pop\n      jump\t// out\n        /* \"#utility.yul\":5997:6177   */\n    tag_51:\n        /* \"#utility.yul\":6045:6122   */\n      0x4e487b7100000000000000000000000000000000000000000000000000000000\n        /* \"#utility.yul\":6042:6043   */\n      0x00\n        /* \"#utility.yul\":6035:6123   */\n      mstore\n        /* \"#utility.yul\":6142:6146   */\n      0x32\n        /* \"#utility.yul\":6139:6140   */\n      0x04\n        /* \"#utility.yul\":6132:6147   */\n      mstore\n        /* \"#utility.yul\":6166:6170   */\n      0x24\n        /* \"#utility.yul\":6163:6164   */\n      0x00\n        /* \"#utility.yul\":6156:6171   */\n      revert\n        /* \"#utility.yul\":6183:6363   */\n    tag_58:\n        /* \"#utility.yul\":6231:6308   */\n      0x4e487b7100000000000000000000000000000000000000000000000000000000\n        /* \"#utility.yul\":6228:6229   */\n      0x00\n        /* \"#utility.yul\":6221:6309   */\n      mstore\n        /* \"#utility.yul\":6328:6332   */\n      0x41\n        /* \"#utility.yul\":6325:6326   */\n      0x04\n        /* \"#utility.yul\":6318:6333   */\n      mstore\n        /* \"#utility.yul\":6352:6356   */\n      0x24\n        /* \"#utility.yul\":6349:6350   */\n      0x00\n        /* \"#utility.yul\":6342:6357   */\n      revert\n        /* \"#utility.yul\":6369:6448   */\n    tag_92:\n        /* \"#utility.yul\":6408:6415   */\n      0x00\n        /* \"#utility.yul\":6437:6442   */\n      dup2\n        /* \"#utility.yul\":6426:6442   */\n      swap1\n      pop\n        /* \"#utility.yul\":6369:6448   */\n      swap2\n      swap1\n      pop\n      jump\t// out\n        /* \"#utility.yul\":6454:6611   */\n    tag_93:\n        /* \"#utility.yul\":6559:6604   */\n      tag_154\n        /* \"#utility.yul\":6579:6603   */\n      tag_155\n        /* \"#utility.yul\":6597:6602   */\n      dup3\n        /* \"#utility.yul\":6579:6603   */\n      tag_75\n      jump\t// in\n    tag_155:\n        /* \"#utility.yul\":6559:6604   */\n      tag_92\n      jump\t// in\n    tag_154:\n        /* \"#utility.yul\":6554:6557   */\n      dup3\n        /* \"#utility.yul\":6547:6605   */\n      mstore\n        /* \"#utility.yul\":6454:6611   */\n      pop\n      pop\n      jump\t// out\n        /* \"#utility.yul\":6617:7155   */\n    tag_64:\n        /* \"#utility.yul\":6785:6788   */\n      0x00\n        /* \"#utility.yul\":6800:6875   */\n      tag_157\n        /* \"#utility.yul\":6871:6874   */\n      dup3\n        /* \"#utility.yul\":6862:6868   */\n      dup7\n        /* \"#utility.yul\":6800:6875   */\n      tag_93\n      jump\t// in\n    tag_157:\n        /* \"#utility.yul\":6900:6902   */\n      0x20\n        /* \"#utility.yul\":6895:6898   */\n      dup3\n        /* \"#utility.yul\":6891:6903   */\n      add\n        /* \"#utility.yul\":6884:6903   */\n      swap2\n      pop\n        /* \"#utility.yul\":6913:6988   */\n      tag_158\n        /* \"#utility.yul\":6984:6987   */\n      dup3\n        /* \"#utility.yul\":6975:6981   */\n      dup6\n        /* \"#utility.yul\":6913:6988   */\n      tag_93\n      jump\t// in\n    tag_158:\n        /* \"#utility.yul\":7013:7015   */\n      0x20\n        /* \"#utility.yul\":7008:7011   */\n      dup3\n        /* \"#utility.yul\":7004:7016   */\n      add\n        /* \"#utility.yul\":6997:7016   */\n      swap2\n      pop\n        /* \"#utility.yul\":7026:7101   */\n      tag_159\n        /* \"#utility.yul\":7097:7100   */\n      dup3\n        /* \"#utility.yul\":7088:7094   */\n      dup5\n        /* \"#utility.yul\":7026:7101   */\n      tag_93\n      jump\t// in\n    tag_159:\n        /* \"#utility.yul\":7126:7128   */\n      0x20\n        /* \"#utility.yul\":7121:7124   */\n      dup3\n        /* \"#utility.yul\":7117:7129   */\n      add\n        /* \"#utility.yul\":7110:7129   */\n      swap2\n      pop\n        /* \"#utility.yul\":7146:7149   */\n      dup2\n        /* \"#utility.yul\":7139:7149   */\n      swap1\n      pop\n        /* \"#utility.yul\":6617:7155   */\n      swap5\n      swap4\n      pop\n      pop\n      pop\n      pop\n      jump\t// out\n\n    auxdata: 0xa2646970667358221220c798760e34825efd4885601c8cc4133c2a4eea5eda8a11a05d16a9e32169978364736f6c634300081a0033\n}\n",
				"bytecode": {
					"linkReferences": {},
					"object": "6080604052348015600e575f80fd5b50335f806101000a81548173ffffffffffffffffffffffffffffffffffffffff021916908373ffffffffffffffffffffffffffffffffffffffff1602179055506109018061005b5f395ff3fe608060405260043610610042575f3560e01c806312065fe0146100f657806335c1d34914610120578063481c6a751461015c578063cc35050b14610186576100f2565b366100f257670de0b6b3a76400003414610091576040517f08c379a000000000000000000000000000000000000000000000000000000000815260040161008890610589565b60405180910390fd5b600133908060018154018082558091505060019003905f5260205f20015f9091909190916101000a81548173ffffffffffffffffffffffffffffffffffffffff021916908373ffffffffffffffffffffffffffffffffffffffff1602179055005b5f80fd5b348015610101575f80fd5b5061010a6101b0565b60405161011791906105bf565b60405180910390f35b34801561012b575f80fd5b5061014660048036038101906101419190610606565b610245565b6040516101539190610670565b60405180910390f35b348015610167575f80fd5b50610170610280565b60405161017d91906106a9565b60405180910390f35b348015610191575f80fd5b5061019a6102a3565b6040516101a791906106a9565b60405180910390f35b5f805f9054906101000a900473ffffffffffffffffffffffffffffffffffffffff1673ffffffffffffffffffffffffffffffffffffffff163373ffffffffffffffffffffffffffffffffffffffff161461023f576040517f08c379a00000000000000000000000000000000000000000000000000000000081526004016102369061070c565b60405180910390fd5b47905090565b60018181548110610254575f80fd5b905f5260205f20015f915054906101000a900473ffffffffffffffffffffffffffffffffffffffff1681565b5f8054906101000a900473ffffffffffffffffffffffffffffffffffffffff1681565b5f805f9054906101000a900473ffffffffffffffffffffffffffffffffffffffff1673ffffffffffffffffffffffffffffffffffffffff163373ffffffffffffffffffffffffffffffffffffffff1614610332576040517f08c379a00000000000000000000000000000000000000000000000000000000081526004016103299061079a565b60405180910390fd5b60036001805490501015610344575f80fd5b5f61034d610455565b90505f806001805490508361036291906107e5565b90506001818154811061037857610377610815565b5b905f5260205f20015f9054906101000a900473ffffffffffffffffffffffffffffffffffffffff1691508173ffffffffffffffffffffffffffffffffffffffff166108fc6103c46101b0565b90811502906040515f60405180830381858888f193505050501580156103ec573d5f803e3d5ffd5b505f67ffffffffffffffff81111561040757610406610842565b5b6040519080825280602002602001820160405280156104355781602001602082028036833780820191505090505b506001908051906020019061044b92919061048d565b5081935050505090565b5f44426001805490506040516020016104709392919061088f565b604051602081830303815290604052805190602001205f1c905090565b828054828255905f5260205f20908101928215610503579160200282015b82811115610502578251825f6101000a81548173ffffffffffffffffffffffffffffffffffffffff021916908373ffffffffffffffffffffffffffffffffffffffff160217905550916020019190600101906104ab565b5b5090506105109190610514565b5090565b5b8082111561052b575f815f905550600101610515565b5090565b5f82825260208201905092915050565b7f31204574686572207265717569726564000000000000000000000000000000005f82015250565b5f61057360108361052f565b915061057e8261053f565b602082019050919050565b5f6020820190508181035f8301526105a081610567565b9050919050565b5f819050919050565b6105b9816105a7565b82525050565b5f6020820190506105d25f8301846105b0565b92915050565b5f80fd5b6105e5816105a7565b81146105ef575f80fd5b50565b5f81359050610600816105dc565b92915050565b5f6020828403121561061b5761061a6105d8565b5b5f610628848285016105f2565b91505092915050565b5f73ffffffffffffffffffffffffffffffffffffffff82169050919050565b5f61065a82610631565b9050919050565b61066a81610650565b82525050565b5f6020820190506106835f830184610661565b92915050565b5f61069382610631565b9050919050565b6106a381610689565b82525050565b5f6020820190506106bc5f83018461069a565b92915050565b7f4f6e6c79206d616e616765722063616e207365652062616c616e6365000000005f82015250565b5f6106f6601c8361052f565b9150610701826106c2565b602082019050919050565b5f6020820190508181035f830152610723816106ea565b9050919050565b7f4f6e6c79206d616e616765722063616e2062652073656c6563742077696e6e655f8201527f7200000000000000000000000000000000000000000000000000000000000000602082015250565b5f61078460218361052f565b915061078f8261072a565b604082019050919050565b5f6020820190508181035f8301526107b181610778565b9050919050565b7f4e487b71000000000000000000000000000000000000000000000000000000005f52601260045260245ffd5b5f6107ef826105a7565b91506107fa836105a7565b92508261080a576108096107b8565b5b828206905092915050565b7f4e487b71000000000000000000000000000000000000000000000000000000005f52603260045260245ffd5b7f4e487b71000000000000000000000000000000000000000000000000000000005f52604160045260245ffd5b5f819050919050565b610889610884826105a7565b61086f565b82525050565b5f61089a8286610878565b6020820191506108aa8285610878565b6020820191506108ba8284610878565b60208201915081905094935050505056fea2646970667358221220c798760e34825efd4885601c8cc4133c2a4eea5eda8a11a05d16a9e32169978364736f6c634300081a0033",
					"opcodes": "PUSH1 0x80 PUSH1 0x40 MSTORE CALLVALUE DUP1 ISZERO PUSH1 0xE JUMPI PUSH0 DUP1 REVERT JUMPDEST POP CALLER PUSH0 DUP1 PUSH2 0x100 EXP DUP2 SLOAD DUP2 PUSH20 0xFFFFFFFFFFFFFFFFFFFFFFFFFFFFFFFFFFFFFFFF MUL NOT AND SWAP1 DUP4 PUSH20 0xFFFFFFFFFFFFFFFFFFFFFFFFFFFFFFFFFFFFFFFF AND MUL OR SWAP1 SSTORE POP PUSH2 0x901 DUP1 PUSH2 0x5B PUSH0 CODECOPY PUSH0 RETURN INVALID PUSH1 0x80 PUSH1 0x40 MSTORE PUSH1 0x4 CALLDATASIZE LT PUSH2 0x42 JUMPI PUSH0 CALLDATALOAD PUSH1 0xE0 SHR DUP1 PUSH4 0x12065FE0 EQ PUSH2 0xF6 JUMPI DUP1 PUSH4 0x35C1D349 EQ PUSH2 0x120 JUMPI DUP1 PUSH4 0x481C6A75 EQ PUSH2 0x15C JUMPI DUP1 PUSH4 0xCC35050B EQ PUSH2 0x186 JUMPI PUSH2 0xF2 JUMP JUMPDEST CALLDATASIZE PUSH2 0xF2 JUMPI PUSH8 0xDE0B6B3A7640000 CALLVALUE EQ PUSH2 0x91 JUMPI PUSH1 0x40 MLOAD PUSH32 0x8C379A000000000000000000000000000000000000000000000000000000000 DUP2 MSTORE PUSH1 0x4 ADD PUSH2 0x88 SWAP1 PUSH2 0x589 JUMP JUMPDEST PUSH1 0x40 MLOAD DUP1 SWAP2 SUB SWAP1 REVERT JUMPDEST PUSH1 0x1 CALLER SWAP1 DUP1 PUSH1 0x1 DUP2 SLOAD ADD DUP1 DUP3 SSTORE DUP1 SWAP2 POP POP PUSH1 0x1 SWAP1 SUB SWAP1 PUSH0 MSTORE PUSH1 0x20 PUSH0 KECCAK256 ADD PUSH0 SWAP1 SWAP2 SWAP1 SWAP2 SWAP1 SWAP2 PUSH2 0x100 EXP DUP2 SLOAD DUP2 PUSH20 0xFFFFFFFFFFFFFFFFFFFFFFFFFFFFFFFFFFFFFFFF MUL NOT AND SWAP1 DUP4 PUSH20 0xFFFFFFFFFFFFFFFFFFFFFFFFFFFFFFFFFFFFFFFF AND MUL OR SWAP1 SSTORE STOP JUMPDEST PUSH0 DUP1 REVERT JUMPDEST CALLVALUE DUP1 ISZERO PUSH2 0x101 JUMPI PUSH0 DUP1 REVERT JUMPDEST POP PUSH2 0x10A PUSH2 0x1B0 JUMP JUMPDEST PUSH1 0x40 MLOAD PUSH2 0x117 SWAP2 SWAP1 PUSH2 0x5BF JUMP JUMPDEST PUSH1 0x40 MLOAD DUP1 SWAP2 SUB SWAP1 RETURN JUMPDEST CALLVALUE DUP1 ISZERO PUSH2 0x12B JUMPI PUSH0 DUP1 REVERT JUMPDEST POP PUSH2 0x146 PUSH1 0x4 DUP1 CALLDATASIZE SUB DUP2 ADD SWAP1 PUSH2 0x141 SWAP2 SWAP1 PUSH2 0x606 JUMP JUMPDEST PUSH2 0x245 JUMP JUMPDEST PUSH1 0x40 MLOAD PUSH2 0x153 SWAP2 SWAP1 PUSH2 0x670 JUMP JUMPDEST PUSH1 0x40 MLOAD DUP1 SWAP2 SUB SWAP1 RETURN JUMPDEST CALLVALUE DUP1 ISZERO PUSH2 0x167 JUMPI PUSH0 DUP1 REVERT JUMPDEST POP PUSH2 0x170 PUSH2 0x280 JUMP JUMPDEST PUSH1 0x40 MLOAD PUSH2 0x17D SWAP2 SWAP1 PUSH2 0x6A9 JUMP JUMPDEST PUSH1 0x40 MLOAD DUP1 SWAP2 SUB SWAP1 RETURN JUMPDEST CALLVALUE DUP1 ISZERO PUSH2 0x191 JUMPI PUSH0 DUP1 REVERT JUMPDEST POP PUSH2 0x19A PUSH2 0x2A3 JUMP JUMPDEST PUSH1 0x40 MLOAD PUSH2 0x1A7 SWAP2 SWAP1 PUSH2 0x6A9 JUMP JUMPDEST PUSH1 0x40 MLOAD DUP1 SWAP2 SUB SWAP1 RETURN JUMPDEST PUSH0 DUP1 PUSH0 SWAP1 SLOAD SWAP1 PUSH2 0x100 EXP SWAP1 DIV PUSH20 0xFFFFFFFFFFFFFFFFFFFFFFFFFFFFFFFFFFFFFFFF AND PUSH20 0xFFFFFFFFFFFFFFFFFFFFFFFFFFFFFFFFFFFFFFFF AND CALLER PUSH20 0xFFFFFFFFFFFFFFFFFFFFFFFFFFFFFFFFFFFFFFFF AND EQ PUSH2 0x23F JUMPI PUSH1 0x40 MLOAD PUSH32 0x8C379A000000000000000000000000000000000000000000000000000000000 DUP2 MSTORE PUSH1 0x4 ADD PUSH2 0x236 SWAP1 PUSH2 0x70C JUMP JUMPDEST PUSH1 0x40 MLOAD DUP1 SWAP2 SUB SWAP1 REVERT JUMPDEST SELFBALANCE SWAP1 POP SWAP1 JUMP JUMPDEST PUSH1 0x1 DUP2 DUP2 SLOAD DUP2 LT PUSH2 0x254 JUMPI PUSH0 DUP1 REVERT JUMPDEST SWAP1 PUSH0 MSTORE PUSH1 0x20 PUSH0 KECCAK256 ADD PUSH0 SWAP2 POP SLOAD SWAP1 PUSH2 0x100 EXP SWAP1 DIV PUSH20 0xFFFFFFFFFFFFFFFFFFFFFFFFFFFFFFFFFFFFFFFF AND DUP2 JUMP JUMPDEST PUSH0 DUP1 SLOAD SWAP1 PUSH2 0x100 EXP SWAP1 DIV PUSH20 0xFFFFFFFFFFFFFFFFFFFFFFFFFFFFFFFFFFFFFFFF AND DUP2 JUMP JUMPDEST PUSH0 DUP1 PUSH0 SWAP1 SLOAD SWAP1 PUSH2 0x100 EXP SWAP1 DIV PUSH20 0xFFFFFFFFFFFFFFFFFFFFFFFFFFFFFFFFFFFFFFFF AND PUSH20 0xFFFFFFFFFFFFFFFFFFFFFFFFFFFFFFFFFFFFFFFF AND CALLER PUSH20 0xFFFFFFFFFFFFFFFFFFFFFFFFFFFFFFFFFFFFFFFF AND EQ PUSH2 0x332 JUMPI PUSH1 0x40 MLOAD PUSH32 0x8C379A000000000000000000000000000000000000000000000000000000000 DUP2 MSTORE PUSH1 0x4 ADD PUSH2 0x329 SWAP1 PUSH2 0x79A JUMP JUMPDEST PUSH1 0x40 MLOAD DUP1 SWAP2 SUB SWAP1 REVERT JUMPDEST PUSH1 0x3 PUSH1 0x1 DUP1 SLOAD SWAP1 POP LT ISZERO PUSH2 0x344 JUMPI PUSH0 DUP1 REVERT JUMPDEST PUSH0 PUSH2 0x34D PUSH2 0x455 JUMP JUMPDEST SWAP1 POP PUSH0 DUP1 PUSH1 0x1 DUP1 SLOAD SWAP1 POP DUP4 PUSH2 0x362 SWAP2 SWAP1 PUSH2 0x7E5 JUMP JUMPDEST SWAP1 POP PUSH1 0x1 DUP2 DUP2 SLOAD DUP2 LT PUSH2 0x378 JUMPI PUSH2 0x377 PUSH2 0x815 JUMP JUMPDEST JUMPDEST SWAP1 PUSH0 MSTORE PUSH1 0x20 PUSH0 KECCAK256 ADD PUSH0 SWAP1 SLOAD SWAP1 PUSH2 0x100 EXP SWAP1 DIV PUSH20 0xFFFFFFFFFFFFFFFFFFFFFFFFFFFFFFFFFFFFFFFF AND SWAP2 POP DUP2 PUSH20 0xFFFFFFFFFFFFFFFFFFFFFFFFFFFFFFFFFFFFFFFF AND PUSH2 0x8FC PUSH2 0x3C4 PUSH2 0x1B0 JUMP JUMPDEST SWAP1 DUP2 ISZERO MUL SWAP1 PUSH1 0x40 MLOAD PUSH0 PUSH1 0x40 MLOAD DUP1 DUP4 SUB DUP2 DUP6 DUP9 DUP9 CALL SWAP4 POP POP POP POP ISZERO DUP1 ISZERO PUSH2 0x3EC JUMPI RETURNDATASIZE PUSH0 DUP1 RETURNDATACOPY RETURNDATASIZE PUSH0 REVERT JUMPDEST POP PUSH0 PUSH8 0xFFFFFFFFFFFFFFFF DUP2 GT ISZERO PUSH2 0x407 JUMPI PUSH2 0x406 PUSH2 0x842 JUMP JUMPDEST JUMPDEST PUSH1 0x40 MLOAD SWAP1 DUP1 DUP3 MSTORE DUP1 PUSH1 0x20 MUL PUSH1 0x20 ADD DUP3 ADD PUSH1 0x40 MSTORE DUP1 ISZERO PUSH2 0x435 JUMPI DUP2 PUSH1 0x20 ADD PUSH1 0x20 DUP3 MUL DUP1 CALLDATASIZE DUP4 CALLDATACOPY DUP1 DUP3 ADD SWAP2 POP POP SWAP1 POP JUMPDEST POP PUSH1 0x1 SWAP1 DUP1 MLOAD SWAP1 PUSH1 0x20 ADD SWAP1 PUSH2 0x44B SWAP3 SWAP2 SWAP1 PUSH2 0x48D JUMP JUMPDEST POP DUP2 SWAP4 POP POP POP POP SWAP1 JUMP JUMPDEST PUSH0 PREVRANDAO TIMESTAMP PUSH1 0x1 DUP1 SLOAD SWAP1 POP PUSH1 0x40 MLOAD PUSH1 0x20 ADD PUSH2 0x470 SWAP4 SWAP3 SWAP2 SWAP1 PUSH2 0x88F JUMP JUMPDEST PUSH1 0x40 MLOAD PUSH1 0x20 DUP2 DUP4 SUB SUB DUP2 MSTORE SWAP1 PUSH1 0x40 MSTORE DUP1 MLOAD SWAP1 PUSH1 0x20 ADD KECCAK256 PUSH0 SHR SWAP1 POP SWAP1 JUMP JUMPDEST DUP3 DUP1 SLOAD DUP3 DUP3 SSTORE SWAP1 PUSH0 MSTORE PUSH1 0x20 PUSH0 KECCAK256 SWAP1 DUP2 ADD SWAP3 DUP3 ISZERO PUSH2 0x503 JUMPI SWAP2 PUSH1 0x20 MUL DUP3 ADD JUMPDEST DUP3 DUP2 GT ISZERO PUSH2 0x502 JUMPI DUP3 MLOAD DUP3 PUSH0 PUSH2 0x100 EXP DUP2 SLOAD DUP2 PUSH20 0xFFFFFFFFFFFFFFFFFFFFFFFFFFFFFFFFFFFFFFFF MUL NOT AND SWAP1 DUP4 PUSH20 0xFFFFFFFFFFFFFFFFFFFFFFFFFFFFFFFFFFFFFFFF AND MUL OR SWAP1 SSTORE POP SWAP2 PUSH1 0x20 ADD SWAP2 SWAP1 PUSH1 0x1 ADD SWAP1 PUSH2 0x4AB JUMP JUMPDEST JUMPDEST POP SWAP1 POP PUSH2 0x510 SWAP2 SWAP1 PUSH2 0x514 JUMP JUMPDEST POP SWAP1 JUMP JUMPDEST JUMPDEST DUP1 DUP3 GT ISZERO PUSH2 0x52B JUMPI PUSH0 DUP2 PUSH0 SWAP1 SSTORE POP PUSH1 0x1 ADD PUSH2 0x515 JUMP JUMPDEST POP SWAP1 JUMP JUMPDEST PUSH0 DUP3 DUP3 MSTORE PUSH1 0x20 DUP3 ADD SWAP1 POP SWAP3 SWAP2 POP POP JUMP JUMPDEST PUSH32 0x3120457468657220726571756972656400000000000000000000000000000000 PUSH0 DUP3 ADD MSTORE POP JUMP JUMPDEST PUSH0 PUSH2 0x573 PUSH1 0x10 DUP4 PUSH2 0x52F JUMP JUMPDEST SWAP2 POP PUSH2 0x57E DUP3 PUSH2 0x53F JUMP JUMPDEST PUSH1 0x20 DUP3 ADD SWAP1 POP SWAP2 SWAP1 POP JUMP JUMPDEST PUSH0 PUSH1 0x20 DUP3 ADD SWAP1 POP DUP2 DUP2 SUB PUSH0 DUP4 ADD MSTORE PUSH2 0x5A0 DUP2 PUSH2 0x567 JUMP JUMPDEST SWAP1 POP SWAP2 SWAP1 POP JUMP JUMPDEST PUSH0 DUP2 SWAP1 POP SWAP2 SWAP1 POP JUMP JUMPDEST PUSH2 0x5B9 DUP2 PUSH2 0x5A7 JUMP JUMPDEST DUP3 MSTORE POP POP JUMP JUMPDEST PUSH0 PUSH1 0x20 DUP3 ADD SWAP1 POP PUSH2 0x5D2 PUSH0 DUP4 ADD DUP5 PUSH2 0x5B0 JUMP JUMPDEST SWAP3 SWAP2 POP POP JUMP JUMPDEST PUSH0 DUP1 REVERT JUMPDEST PUSH2 0x5E5 DUP2 PUSH2 0x5A7 JUMP JUMPDEST DUP2 EQ PUSH2 0x5EF JUMPI PUSH0 DUP1 REVERT JUMPDEST POP JUMP JUMPDEST PUSH0 DUP2 CALLDATALOAD SWAP1 POP PUSH2 0x600 DUP2 PUSH2 0x5DC JUMP JUMPDEST SWAP3 SWAP2 POP POP JUMP JUMPDEST PUSH0 PUSH1 0x20 DUP3 DUP5 SUB SLT ISZERO PUSH2 0x61B JUMPI PUSH2 0x61A PUSH2 0x5D8 JUMP JUMPDEST JUMPDEST PUSH0 PUSH2 0x628 DUP5 DUP3 DUP6 ADD PUSH2 0x5F2 JUMP JUMPDEST SWAP2 POP POP SWAP3 SWAP2 POP POP JUMP JUMPDEST PUSH0 PUSH20 0xFFFFFFFFFFFFFFFFFFFFFFFFFFFFFFFFFFFFFFFF DUP3 AND SWAP1 POP SWAP2 SWAP1 POP JUMP JUMPDEST PUSH0 PUSH2 0x65A DUP3 PUSH2 0x631 JUMP JUMPDEST SWAP1 POP SWAP2 SWAP1 POP JUMP JUMPDEST PUSH2 0x66A DUP2 PUSH2 0x650 JUMP JUMPDEST DUP3 MSTORE POP POP JUMP JUMPDEST PUSH0 PUSH1 0x20 DUP3 ADD SWAP1 POP PUSH2 0x683 PUSH0 DUP4 ADD DUP5 PUSH2 0x661 JUMP JUMPDEST SWAP3 SWAP2 POP POP JUMP JUMPDEST PUSH0 PUSH2 0x693 DUP3 PUSH2 0x631 JUMP JUMPDEST SWAP1 POP SWAP2 SWAP1 POP JUMP JUMPDEST PUSH2 0x6A3 DUP2 PUSH2 0x689 JUMP JUMPDEST DUP3 MSTORE POP POP JUMP JUMPDEST PUSH0 PUSH1 0x20 DUP3 ADD SWAP1 POP PUSH2 0x6BC PUSH0 DUP4 ADD DUP5 PUSH2 0x69A JUMP JUMPDEST SWAP3 SWAP2 POP POP JUMP JUMPDEST PUSH32 0x4F6E6C79206D616E616765722063616E207365652062616C616E636500000000 PUSH0 DUP3 ADD MSTORE POP JUMP JUMPDEST PUSH0 PUSH2 0x6F6 PUSH1 0x1C DUP4 PUSH2 0x52F JUMP JUMPDEST SWAP2 POP PUSH2 0x701 DUP3 PUSH2 0x6C2 JUMP JUMPDEST PUSH1 0x20 DUP3 ADD SWAP1 POP SWAP2 SWAP1 POP JUMP JUMPDEST PUSH0 PUSH1 0x20 DUP3 ADD SWAP1 POP DUP2 DUP2 SUB PUSH0 DUP4 ADD MSTORE PUSH2 0x723 DUP2 PUSH2 0x6EA JUMP JUMPDEST SWAP1 POP SWAP2 SWAP1 POP JUMP JUMPDEST PUSH32 0x4F6E6C79206D616E616765722063616E2062652073656C6563742077696E6E65 PUSH0 DUP3 ADD MSTORE PUSH32 0x7200000000000000000000000000000000000000000000000000000000000000 PUSH1 0x20 DUP3 ADD MSTORE POP JUMP JUMPDEST PUSH0 PUSH2 0x784 PUSH1 0x21 DUP4 PUSH2 0x52F JUMP JUMPDEST SWAP2 POP PUSH2 0x78F DUP3 PUSH2 0x72A JUMP JUMPDEST PUSH1 0x40 DUP3 ADD SWAP1 POP SWAP2 SWAP1 POP JUMP JUMPDEST PUSH0 PUSH1 0x20 DUP3 ADD SWAP1 POP DUP2 DUP2 SUB PUSH0 DUP4 ADD MSTORE PUSH2 0x7B1 DUP2 PUSH2 0x778 JUMP JUMPDEST SWAP1 POP SWAP2 SWAP1 POP JUMP JUMPDEST PUSH32 0x4E487B7100000000000000000000000000000000000000000000000000000000 PUSH0 MSTORE PUSH1 0x12 PUSH1 0x4 MSTORE PUSH1 0x24 PUSH0 REVERT JUMPDEST PUSH0 PUSH2 0x7EF DUP3 PUSH2 0x5A7 JUMP JUMPDEST SWAP2 POP PUSH2 0x7FA DUP4 PUSH2 0x5A7 JUMP JUMPDEST SWAP3 POP DUP3 PUSH2 0x80A JUMPI PUSH2 0x809 PUSH2 0x7B8 JUMP JUMPDEST JUMPDEST DUP3 DUP3 MOD SWAP1 POP SWAP3 SWAP2 POP POP JUMP JUMPDEST PUSH32 0x4E487B7100000000000000000000000000000000000000000000000000000000 PUSH0 MSTORE PUSH1 0x32 PUSH1 0x4 MSTORE PUSH1 0x24 PUSH0 REVERT JUMPDEST PUSH32 0x4E487B7100000000000000000000000000000000000000000000000000000000 PUSH0 MSTORE PUSH1 0x41 PUSH1 0x4 MSTORE PUSH1 0x24 PUSH0 REVERT JUMPDEST PUSH0 DUP2 SWAP1 POP SWAP2 SWAP1 POP JUMP JUMPDEST PUSH2 0x889 PUSH2 0x884 DUP3 PUSH2 0x5A7 JUMP JUMPDEST PUSH2 0x86F JUMP JUMPDEST DUP3 MSTORE POP POP JUMP JUMPDEST PUSH0 PUSH2 0x89A DUP3 DUP7 PUSH2 0x878 JUMP JUMPDEST PUSH1 0x20 DUP3 ADD SWAP2 POP PUSH2 0x8AA DUP3 DUP6 PUSH2 0x878 JUMP JUMPDEST PUSH1 0x20 DUP3 ADD SWAP2 POP PUSH2 0x8BA DUP3 DUP5 PUSH2 0x878 JUMP JUMPDEST PUSH1 0x20 DUP3 ADD SWAP2 POP DUP2 SWAP1 POP SWAP5 SWAP4 POP POP POP POP JUMP INVALID LOG2 PUSH5 0x6970667358 0x22 SLT KECCAK256 0xC7 SWAP9 PUSH23 0xE34825EFD4885601C8CC4133C2A4EEA5EDA8A11A05D16 0xA9 0xE3 0x21 PUSH10 0x978364736F6C63430008 BYTE STOP CALLER "
				},
				"gasEstimates": {
					"creation": {
						"codeDepositCost": "461000",
						"executionCost": "24762",
						"totalCost": "485762"
					},
					"external": {
						"getBalance()": "2576",
						"manager()": "2527",
						"participants(uint256)": "4944",
						"setlectWinner()": "infinite"
					},
					"internal": {
						"random()": "infinite"
					}
				},
				"methodIdentifiers": {
					"getBalance()": "12065fe0",
					"manager()": "481c6a75",
					"participants(uint256)": "35c1d349",
					"setlectWinner()": "cc35050b"
				}
			},
			"storageLayout": {
				"storage": [
					{
						"astId": 3,
						"contract": "Lottery.sol:Lottery",
						"label": "manager",
						"offset": 0,
						"slot": "0",
						"type": "t_address"
					},
					{
						"astId": 6,
						"contract": "Lottery.sol:Lottery",
						"label": "participants",
						"offset": 0,
						"slot": "1",
						"type": "t_array(t_address_payable)dyn_storage"
					}
				],
				"types": {
					"t_address": {
						"encoding": "inplace",
						"label": "address",
						"numberOfBytes": "20"
					},
					"t_address_payable": {
						"encoding": "inplace",
						"label": "address payable",
						"numberOfBytes": "20"
					},
					"t_array(t_address_payable)dyn_storage": {
						"base": "t_address_payable",
						"encoding": "dynamic_array",
						"label": "address payable[]",
						"numberOfBytes": "32"
					}
				}
			},
			"userdoc": {
				"kind": "user",
				"methods": {},
				"version": 1
			}
		}
	}
}